:100000000C9434000C943E000C943E000C943E0082
:100010000C943E000C943E000C943E000C943E0068
:100020000C943E000C943E000C943E000C943E0058
:100030000C943E000C943E000C943E000C943E0048
:100040000C943E000C943E000C943E000C943E0038
:100050000C943E000C943E000C943E000C943E0028
:100060000C943E000C943E0011241FBECFEFD8E04C
:10007000DEBFCDBF0E945A000C946F000C940000AC
:10008000ECEBF0E094E090838093BA0084EC808302
:100090000895ECEBF0E080818823ECF7089584E884
:1000A0008093BC00ECEBF0E080818823ECF780913A
:1000B000BB0008958FE084B980E10E9440000CEB02
:1000C00010E0C4ECD1E0F801C0830E9449000E9416
:1000D0004F00883011F4D5B9F6CF15B8F4CFF894A5
:0200E000FFCF50
:00000001FF
