:100000000C9434000C943E000C943E000C943E0082
:100010000C943E000C943E000C943E000C943E0068
:100020000C943E000C943E000C943E000C943E0058
:100030000C943E000C943E000C943E000C943E0048
:100040000C943E000C943E000C943E000C943E0038
:100050000C943E000C943E000C943E000C943E0028
:100060000C943E000C943E0011241FBECFEFD8E04C
:10007000DEBFCDBF0E945B000C9471000C940000A9
:1000800083E08093B9008FEF8093B8000895809348
:10009000BB0084E88093BC00ECEBF0E08081882317
:1000A000ECF7089584EA8093BC00ECEBF0E08081EB
:1000B0008823ECF708958FE084B90E9440000CEB90
:1000C00010E0D4E9C0E00E94520080E10E944700A5
:1000D0008C2F0E944700F801D083CF5FC93099F779
:0600E000F1CFF894FFCF00
:00000001FF
